{
  "contractName": "AaveHandler",
  "abi": [
    {
      "constant": true,
      "inputs": [],
      "name": "provider",
      "outputs": [
        {
          "name": "",
          "type": "address"
        }
      ],
      "payable": false,
      "stateMutability": "view",
      "type": "function"
    },
    {
      "constant": true,
      "inputs": [],
      "name": "weth9",
      "outputs": [
        {
          "name": "",
          "type": "address"
        }
      ],
      "payable": false,
      "stateMutability": "view",
      "type": "function"
    },
    {
      "inputs": [
        {
          "name": "_provider",
          "type": "address"
        },
        {
          "name": "_weth9",
          "type": "address"
        }
      ],
      "payable": false,
      "stateMutability": "nonpayable",
      "type": "constructor"
    },
    {
      "payable": true,
      "stateMutability": "payable",
      "type": "fallback"
    },
    {
      "anonymous": false,
      "inputs": [
        {
          "indexed": true,
          "name": "_tokenAddr",
          "type": "address"
        },
        {
          "indexed": true,
          "name": "_lendTokenAddr",
          "type": "address"
        },
        {
          "indexed": false,
          "name": "_amount",
          "type": "uint256"
        },
        {
          "indexed": false,
          "name": "_lendTokenAmount",
          "type": "uint256"
        }
      ],
      "name": "LogLend",
      "type": "event"
    },
    {
      "anonymous": false,
      "inputs": [
        {
          "indexed": true,
          "name": "_tokenAddr",
          "type": "address"
        },
        {
          "indexed": true,
          "name": "_lendTokenAddr",
          "type": "address"
        },
        {
          "indexed": false,
          "name": "_amount",
          "type": "uint256"
        },
        {
          "indexed": false,
          "name": "_lendTokenAmount",
          "type": "uint256"
        }
      ],
      "name": "LogRedeem",
      "type": "event"
    },
    {
      "constant": true,
      "inputs": [
        {
          "name": "_addr",
          "type": "address"
        },
        {
          "name": "_tokenAddr",
          "type": "address"
        }
      ],
      "name": "balanceOf",
      "outputs": [
        {
          "name": "",
          "type": "uint256"
        }
      ],
      "payable": false,
      "stateMutability": "view",
      "type": "function"
    },
    {
      "constant": true,
      "inputs": [
        {
          "name": "_tokenAddr",
          "type": "address"
        }
      ],
      "name": "getAToken",
      "outputs": [
        {
          "name": "",
          "type": "address"
        }
      ],
      "payable": false,
      "stateMutability": "view",
      "type": "function"
    },
    {
      "constant": false,
      "inputs": [
        {
          "name": "_tokenAddr",
          "type": "address"
        },
        {
          "name": "_amount",
          "type": "uint256"
        }
      ],
      "name": "lend",
      "outputs": [
        {
          "name": "_lendTokenAmount",
          "type": "uint256"
        }
      ],
      "payable": false,
      "stateMutability": "nonpayable",
      "type": "function"
    },
    {
      "constant": false,
      "inputs": [
        {
          "name": "_tokenAddr",
          "type": "address"
        },
        {
          "name": "_lendTokenAmount",
          "type": "uint256"
        }
      ],
      "name": "redeem",
      "outputs": [
        {
          "name": "_amount",
          "type": "uint256"
        }
      ],
      "payable": false,
      "stateMutability": "nonpayable",
      "type": "function"
    }
  ],
  "bytecode": "0x6080604052600280546001600160a01b03191673eeeeeeeeeeeeeeeeeeeeeeeeeeeeeeeeeeeeeeee17905534801561003657600080fd5b50604051604080610ea08339810180604052604081101561005657600080fd5b508051602090910151600080546001600160a01b039384166001600160a01b03199182161790915560018054939092169216919091179055610e038061009d6000396000f3fe6080604052600436106100555760003560e01c8063085d4883146100575780631e9a69501461008857806350879c1c146100d3578063732a52ee146100e8578063a2fb342d1461011b578063f7888aec14610154575b005b34801561006357600080fd5b5061006c61018f565b604080516001600160a01b039092168252519081900360200190f35b34801561009457600080fd5b506100c1600480360360408110156100ab57600080fd5b506001600160a01b03813516906020013561019e565b60408051918252519081900360200190f35b3480156100df57600080fd5b5061006c6105c2565b3480156100f457600080fd5b5061006c6004803603602081101561010b57600080fd5b50356001600160a01b03166105d1565b34801561012757600080fd5b506100c16004803603604081101561013e57600080fd5b506001600160a01b03813516906020013561076f565b34801561016057600080fd5b506100c16004803603604081101561017757600080fd5b506001600160a01b0381358116916020013516610d3f565b6000546001600160a01b031681565b6000805460408051600160e51b63076b7fbb028152905183926001600160a01b03169163ed6ff760916004808301926020929190829003018186803b1580156101e657600080fd5b505afa1580156101fa573d6000803e3d6000fd5b505050506040513d602081101561021057600080fd5b50516001549091506000906001600160a01b038681169116146102b657816001600160a01b03166334b3beee866040518263ffffffff1660e01b815260040180826001600160a01b03166001600160a01b0316815260200191505060206040518083038186803b15801561028357600080fd5b505afa158015610297573d6000803e3d6000fd5b505050506040513d60208110156102ad57600080fd5b50519050610335565b60025460408051600160e11b631a59df770281526001600160a01b0392831660048201529051918416916334b3beee91602480820192602092909190829003018186803b15801561030657600080fd5b505afa15801561031a573d6000803e3d6000fd5b505050506040513d602081101561033057600080fd5b505190505b60408051600160e01b6323b872dd0281523360048201523060248201526044810186905290516001600160a01b038316916323b872dd91606480830192600092919082900301818387803b15801561038c57600080fd5b505af11580156103a0573d6000803e3d6000fd5b50505050806001600160a01b031663db006a75856040518263ffffffff1660e01b815260040180828152602001915050600060405180830381600087803b1580156103ea57600080fd5b505af11580156103fe573d6000803e3d6000fd5b50506001546001600160a01b0388811691161415915061048690505760015460408051600160e41b630d0e30db0281529051303195506001600160a01b039092169163d0e30db0918691600480830192600092919082900301818588803b15801561046857600080fd5b505af115801561047c573d6000803e3d6000fd5b50505050506104fe565b60408051600160e01b6370a0823102815230600482015290516001600160a01b038716916370a08231916024808301926020929190829003018186803b1580156104cf57600080fd5b505afa1580156104e3573d6000803e3d6000fd5b505050506040513d60208110156104f957600080fd5b505192505b60408051600160e01b63a9059cbb0281523360048201526024810185905290516001600160a01b0387169163a9059cbb91604480830192600092919082900301818387803b15801561054f57600080fd5b505af1158015610563573d6000803e3d6000fd5b50505050806001600160a01b0316856001600160a01b03167f10fc5379ba328407e434bf1de37edcc3052f776c156f7e1f4f9bc34482de32088587604051808381526020018281526020019250505060405180910390a3505092915050565b6001546001600160a01b031681565b6000805460408051600160e51b63076b7fbb028152905183926001600160a01b03169163ed6ff760916004808301926020929190829003018186803b15801561061957600080fd5b505afa15801561062d573d6000803e3d6000fd5b505050506040513d602081101561064357600080fd5b50516001549091506000906001600160a01b038581169116146106e957816001600160a01b03166334b3beee856040518263ffffffff1660e01b815260040180826001600160a01b03166001600160a01b0316815260200191505060206040518083038186803b1580156106b657600080fd5b505afa1580156106ca573d6000803e3d6000fd5b505050506040513d60208110156106e057600080fd5b50519050610768565b60025460408051600160e11b631a59df770281526001600160a01b0392831660048201529051918416916334b3beee91602480820192602092909190829003018186803b15801561073957600080fd5b505afa15801561074d573d6000803e3d6000fd5b505050506040513d602081101561076357600080fd5b505190505b9392505050565b60408051600160e01b6323b872dd0281523360048201523060248201526044810183905290516000916001600160a01b038516916323b872dd91606480820192869290919082900301818387803b1580156107c957600080fd5b505af11580156107dd573d6000803e3d6000fd5b5050505060008060009054906101000a90046001600160a01b03166001600160a01b0316630261bf8b6040518163ffffffff1660e01b815260040160206040518083038186803b15801561083057600080fd5b505afa158015610844573d6000803e3d6000fd5b505050506040513d602081101561085a57600080fd5b50516000805460408051600160e51b63076b7fbb028152905193945091926001600160a01b039091169163ed6ff760916004808301926020929190829003018186803b1580156108a957600080fd5b505afa1580156108bd573d6000803e3d6000fd5b505050506040513d60208110156108d357600080fd5b50516001549091506001600160a01b038681169116141561095b5760015460408051600160e01b632e1a7d4d0281526004810187905290516001600160a01b0390921691632e1a7d4d9160248082019260009290919082900301818387803b15801561093e57600080fd5b505af1158015610952573d6000803e3d6000fd5b505050506109d4565b846001600160a01b031663095ea7b382866040518363ffffffff1660e01b815260040180836001600160a01b03166001600160a01b0316815260200182815260200192505050600060405180830381600087803b1580156109bb57600080fd5b505af11580156109cf573d6000803e3d6000fd5b505050505b6001546001600160a01b03868116911614610a5f5760408051600160e11b63696870330281526001600160a01b0387811660048301526024820187905260006044830181905292519085169263d2d0e066926064808201939182900301818387803b158015610a4257600080fd5b505af1158015610a56573d6000803e3d6000fd5b50505050610ad7565b60025460408051600160e11b63696870330281526001600160a01b0392831660048201526024810187905260006044820181905291519285169263d2d0e0669288926064808201939182900301818588803b158015610abd57600080fd5b505af1158015610ad1573d6000803e3d6000fd5b50505050505b6001546001600160a01b03868116911614610b575760408051600160e01b63095ea7b30281526001600160a01b03838116600483015260006024830181905292519088169263095ea7b3926044808201939182900301818387803b158015610b3e57600080fd5b505af1158015610b52573d6000803e3d6000fd5b505050505b6001546000906001600160a01b03878116911614610bf857816001600160a01b03166334b3beee876040518263ffffffff1660e01b815260040180826001600160a01b03166001600160a01b0316815260200191505060206040518083038186803b158015610bc557600080fd5b505afa158015610bd9573d6000803e3d6000fd5b505050506040513d6020811015610bef57600080fd5b50519050610c77565b60025460408051600160e11b631a59df770281526001600160a01b0392831660048201529051918416916334b3beee91602480820192602092909190829003018186803b158015610c4857600080fd5b505afa158015610c5c573d6000803e3d6000fd5b505050506040513d6020811015610c7257600080fd5b505190505b60408051600160e01b63a9059cbb0281523360048201526024810187905290516001600160a01b0383169163a9059cbb91604480830192600092919082900301818387803b158015610cc857600080fd5b505af1158015610cdc573d6000803e3d6000fd5b50505050849350806001600160a01b0316866001600160a01b03167fb4c3456fd6e5b7e6538b9ad36772576a3fe7ba0bc0c0c68ea342a02c93d2ffb18788604051808381526020018281526020019250505060405180910390a350505092915050565b600080610d4b836105d1565b9050806001600160a01b03166370a08231856040518263ffffffff1660e01b815260040180826001600160a01b03166001600160a01b0316815260200191505060206040518083038186803b158015610da357600080fd5b505afa158015610db7573d6000803e3d6000fd5b505050506040513d6020811015610dcd57600080fd5b505194935050505056fea165627a7a72305820794fab5cc2c1c9f99eff18a8fc11a87740206882439dd0ec5af7fc01ed4dce730029",
  "source": "pragma solidity 0.5.8;\n\nimport \"@openzeppelin/contracts/ownership/Ownable.sol\";\nimport \"../lib/external/aave/LendingPoolAddressesProvider.sol\";\nimport \"../lib/external/aave/LendingPoolCore.sol\";\nimport \"../lib/external/aave/LendingPool.sol\";\nimport \"../lib/external/aave/AToken.sol\";\nimport \"../lib/WETH9.sol\";\nimport \"../lib/IERC20.sol\";\n\ncontract AaveHandler {\n\n    LendingPoolAddressesProvider public provider;\n    WETH9 public weth9;\n    address internal ETH_ADDRESS = 0xEeeeeEeeeEeEeeEeEeEeeEEEeeeeEeeeeeeeEEeE;\n\n    constructor(LendingPoolAddressesProvider _provider, WETH9 _weth9)\n        public\n    {\n        provider = _provider;\n        weth9 = _weth9;\n    }\n\n    event LogLend(\n        address indexed _tokenAddr,\n        address indexed _lendTokenAddr,\n        uint256 _amount,\n        uint256 _lendTokenAmount\n    );\n\n    event LogRedeem(\n        address indexed _tokenAddr,\n        address indexed _lendTokenAddr,\n        uint256 _amount,\n        uint256 _lendTokenAmount\n    );\n\n    function balanceOf(address _addr, address _tokenAddr)\n        public\n        view\n        returns (uint256)\n    {\n        address aToken = getAToken(_tokenAddr);\n        return IERC20(aToken).balanceOf(_addr);\n    }\n\n    function getAToken(address _tokenAddr)\n        public\n        view\n        returns (address)\n    {\n        address coreAddr = provider.getLendingPoolCore();\n\n        address aToken;\n        if(_tokenAddr != address(weth9)) {\n            aToken = LendingPoolCore(coreAddr).getReserveATokenAddress(_tokenAddr);\n        } else {\n            aToken = LendingPoolCore(coreAddr).getReserveATokenAddress(ETH_ADDRESS);\n        }\n        return aToken;\n    }\n\n    function lend(address _tokenAddr, uint256 _amount)\n        public\n        returns (uint256 _lendTokenAmount)\n    {\n\n        IERC20(_tokenAddr).transferFrom(msg.sender, address(this), _amount);\n\n        LendingPool lendingPool = LendingPool(provider.getLendingPool());\n\n        address coreAddr = provider.getLendingPoolCore();\n\n        if(_tokenAddr == address(weth9)) {\n            weth9.withdraw(_amount);\n        } else {\n            IERC20(_tokenAddr).approve(coreAddr, _amount);\n        }\n\n        if(_tokenAddr != address(weth9)) {\n            lendingPool.deposit(_tokenAddr, _amount, 0);\n        } else {\n            lendingPool.deposit.value(_amount)(ETH_ADDRESS, _amount, 0);\n        }\n\n        if(_tokenAddr != address(weth9)) {\n            IERC20(_tokenAddr).approve(coreAddr, 0);\n        }\n        address aToken;\n        if(_tokenAddr != address(weth9)) {\n            aToken = LendingPoolCore(coreAddr).getReserveATokenAddress(_tokenAddr);\n        } else {\n            aToken = LendingPoolCore(coreAddr).getReserveATokenAddress(ETH_ADDRESS);\n        }\n\n        IERC20(aToken).transfer(msg.sender, _amount);\n\n        _lendTokenAmount = _amount;\n\n        emit LogLend(_tokenAddr, aToken, _amount, _amount);\n    }\n\n    function redeem(address _tokenAddr, uint256 _lendTokenAmount)\n        public\n        returns (uint256 _amount)\n    {\n        address coreAddr = provider.getLendingPoolCore();\n        \n        address aToken;\n        if(_tokenAddr != address(weth9)) {\n            aToken = LendingPoolCore(coreAddr).getReserveATokenAddress(_tokenAddr);\n        } else {\n            aToken = LendingPoolCore(coreAddr).getReserveATokenAddress(ETH_ADDRESS);\n        }\n        \n        IERC20(aToken).transferFrom(msg.sender, address(this), _lendTokenAmount);\n\n        AToken(aToken).redeem(_lendTokenAmount);\n\n        if(_tokenAddr == address(weth9)) {\n            _amount = address(this).balance;\n            weth9.deposit.value(_amount)();\n        } else {\n            _amount = IERC20(_tokenAddr).balanceOf(address(this));\n        }\n        \n        IERC20(_tokenAddr).transfer(msg.sender, _amount);\n\n        emit LogRedeem(_tokenAddr, aToken, _amount, _lendTokenAmount);\n    }\n\n    function()\n        external\n        payable\n    {\n    }\n\n}",
  "sourcePath": "/Users/saitejakuruva/Documents/lucrum/contracts/handlers/AaveHandler.sol",
  "compiler": {
    "name": "solc",
    "version": "0.5.8+commit.23d335f2.Emscripten.clang"
  },
  "schemaVersion": "3.1.0",
  "updatedAt": "2020-05-19T01:24:53.412Z",
  "devdoc": {
    "methods": {}
  },
  "userdoc": {
    "methods": {}
  }
}