{
  "contractName": "AaveToKyberBridge",
  "abi": [
    {
      "constant": true,
      "inputs": [],
      "name": "AAVE_DAI",
      "outputs": [
        {
          "name": "",
          "type": "address"
        }
      ],
      "payable": false,
      "stateMutability": "view",
      "type": "function"
    },
    {
      "constant": true,
      "inputs": [],
      "name": "KYBER_DAI",
      "outputs": [
        {
          "name": "",
          "type": "address"
        }
      ],
      "payable": false,
      "stateMutability": "view",
      "type": "function"
    },
    {
      "constant": false,
      "inputs": [
        {
          "name": "_amount",
          "type": "uint256"
        }
      ],
      "name": "up",
      "outputs": [
        {
          "name": "",
          "type": "uint256"
        }
      ],
      "payable": false,
      "stateMutability": "nonpayable",
      "type": "function"
    },
    {
      "constant": false,
      "inputs": [
        {
          "name": "_amount",
          "type": "uint256"
        }
      ],
      "name": "down",
      "outputs": [
        {
          "name": "",
          "type": "uint256"
        }
      ],
      "payable": false,
      "stateMutability": "nonpayable",
      "type": "function"
    }
  ],
  "bytecode": "0x6080604052600080546001600160a01b031990811673ff795577d9ac8bd7d90ee22b6c1703490b6512fd1790915560018054909116734f96fe3b7a6cf9725f59d353f723c1bdb64ca6aa17905534801561005857600080fd5b506102c0806100686000396000f3fe608060405234801561001057600080fd5b506004361061004b5760003560e01c80628d7854146100505780635725d1e71461007f578063a43285e0146100a3578063c77eb69a146100c0575b600080fd5b61006d6004803603602081101561006657600080fd5b50356100c8565b60408051918252519081900360200190f35b6100876101ac565b604080516001600160a01b039092168252519081900360200190f35b61006d600480360360208110156100b957600080fd5b50356101bb565b610087610285565b60015460408051600160e01b6323b872dd0281523360048201523060248201526044810184905290516000926001600160a01b0316916323b872dd916064808301928692919082900301818387803b15801561012357600080fd5b505af1158015610137573d6000803e3d6000fd5b50506000805460408051600160e01b63a9059cbb0281523360048201526024810188905290516001600160a01b03909216945063a9059cbb9350604480820193929182900301818387803b15801561018e57600080fd5b505af11580156101a2573d6000803e3d6000fd5b5093949350505050565b6000546001600160a01b031681565b6000805460408051600160e01b6323b872dd0281523360048201523060248201526044810185905290516001600160a01b03909216916323b872dd91606480820192869290919082900301818387803b15801561021757600080fd5b505af115801561022b573d6000803e3d6000fd5b505060015460408051600160e01b63a9059cbb0281523360048201526024810187905290516001600160a01b03909216935063a9059cbb925060448082019260009290919082900301818387803b15801561018e57600080fd5b6001546001600160a01b03168156fea165627a7a72305820ee843d68231b0927635e025c64211463c2d063d47d3ab0ea3d38619d3129a5b70029",
  "source": "pragma solidity 0.5.8;\n\nimport \"../lib/IERC20.sol\";\n\n//Just to use in Kovan\ncontract AaveToKyberBridge {\n    address public AAVE_DAI = 0xFf795577d9AC8bD7D90Ee22b6C1703490b6512FD;\n    address public KYBER_DAI = 0x4F96Fe3b7A6Cf9725f59d353F723c1bDb64CA6Aa;\n\n    function up(uint256 _amount) public returns(uint256) {\n        IERC20(AAVE_DAI).transferFrom(msg.sender, address(this), _amount);\n        IERC20(KYBER_DAI).transfer(msg.sender, _amount);\n        return _amount;\n    }\n\n    function down(uint256 _amount) public returns(uint256) {\n        IERC20(KYBER_DAI).transferFrom(msg.sender, address(this), _amount);\n        IERC20(AAVE_DAI).transfer(msg.sender, _amount);\n        return _amount;\n    }\n}",
  "sourcePath": "/Users/saitejakuruva/Documents/lucrum/contracts/handlers/AaveToKyberBridge.sol",
  "compiler": {
    "name": "solc",
    "version": "0.5.8+commit.23d335f2.Emscripten.clang"
  },
  "schemaVersion": "3.1.0",
  "updatedAt": "2020-05-19T01:24:53.419Z",
  "devdoc": {
    "methods": {}
  },
  "userdoc": {
    "methods": {}
  }
}