{
  "contractName": "ChainlinkHandler",
  "abi": [
    {
      "constant": false,
      "inputs": [],
      "name": "renounceOwnership",
      "outputs": [],
      "payable": false,
      "stateMutability": "nonpayable",
      "type": "function"
    },
    {
      "constant": true,
      "inputs": [],
      "name": "owner",
      "outputs": [
        {
          "name": "",
          "type": "address"
        }
      ],
      "payable": false,
      "stateMutability": "view",
      "type": "function"
    },
    {
      "constant": true,
      "inputs": [],
      "name": "isOwner",
      "outputs": [
        {
          "name": "",
          "type": "bool"
        }
      ],
      "payable": false,
      "stateMutability": "view",
      "type": "function"
    },
    {
      "constant": true,
      "inputs": [
        {
          "name": "",
          "type": "address"
        }
      ],
      "name": "oracles",
      "outputs": [
        {
          "name": "",
          "type": "address"
        }
      ],
      "payable": false,
      "stateMutability": "view",
      "type": "function"
    },
    {
      "constant": false,
      "inputs": [
        {
          "name": "newOwner",
          "type": "address"
        }
      ],
      "name": "transferOwnership",
      "outputs": [],
      "payable": false,
      "stateMutability": "nonpayable",
      "type": "function"
    },
    {
      "anonymous": false,
      "inputs": [
        {
          "indexed": true,
          "name": "previousOwner",
          "type": "address"
        },
        {
          "indexed": true,
          "name": "newOwner",
          "type": "address"
        }
      ],
      "name": "OwnershipTransferred",
      "type": "event"
    },
    {
      "constant": false,
      "inputs": [
        {
          "name": "_tokenAddr",
          "type": "address"
        },
        {
          "name": "_oracleAddr",
          "type": "address"
        }
      ],
      "name": "setOracle",
      "outputs": [],
      "payable": false,
      "stateMutability": "nonpayable",
      "type": "function"
    },
    {
      "constant": true,
      "inputs": [
        {
          "name": "_tokenAddr",
          "type": "address"
        }
      ],
      "name": "getPrice",
      "outputs": [
        {
          "name": "",
          "type": "uint256"
        }
      ],
      "payable": false,
      "stateMutability": "view",
      "type": "function"
    }
  ],
  "bytecode": "0x6080604052600061001461006360201b60201c565b600080546001600160a01b0319166001600160a01b0383169081178255604051929350917f8be0079c531659141344cd1fd0a4f28419497f9722a3daafe3b4186f6b6457e0908290a350610067565b3390565b6104e4806100766000396000f3fe608060405234801561001057600080fd5b506004361061007d5760003560e01c80638da5cb5b1161005b5780638da5cb5b146100f25780638f32d59b14610116578063addd509914610132578063f2fde38b146101585761007d565b806341976e09146100825780635c38eb3a146100ba578063715018a6146100ea575b600080fd5b6100a86004803603602081101561009857600080fd5b50356001600160a01b031661017e565b60408051918252519081900360200190f35b6100e8600480360360408110156100d057600080fd5b506001600160a01b0381358116916020013516610205565b005b6100e861028f565b6100fa610335565b604080516001600160a01b039092168252519081900360200190f35b61011e610344565b604080519115158252519081900360200190f35b6100fa6004803603602081101561014857600080fd5b50356001600160a01b0316610368565b6100e86004803603602081101561016e57600080fd5b50356001600160a01b0316610383565b6001600160a01b038082166000908152600160209081526040808320548151600160e01b6350d25bcd0281529151939416926350d25bcd92600480840193919291829003018186803b1580156101d357600080fd5b505afa1580156101e7573d6000803e3d6000fd5b505050506040513d60208110156101fd57600080fd5b505192915050565b61020d610344565b6102615760408051600160e51b62461bcd02815260206004820181905260248201527f4f776e61626c653a2063616c6c6572206973206e6f7420746865206f776e6572604482015290519081900360640190fd5b6001600160a01b03918216600090815260016020526040902080546001600160a01b03191691909216179055565b610297610344565b6102eb5760408051600160e51b62461bcd02815260206004820181905260248201527f4f776e61626c653a2063616c6c6572206973206e6f7420746865206f776e6572604482015290519081900360640190fd5b600080546040516001600160a01b03909116907f8be0079c531659141344cd1fd0a4f28419497f9722a3daafe3b4186f6b6457e0908390a3600080546001600160a01b0319169055565b6000546001600160a01b031690565b600080546001600160a01b03166103596103eb565b6001600160a01b031614905090565b6001602052600090815260409020546001600160a01b031681565b61038b610344565b6103df5760408051600160e51b62461bcd02815260206004820181905260248201527f4f776e61626c653a2063616c6c6572206973206e6f7420746865206f776e6572604482015290519081900360640190fd5b6103e8816103ef565b50565b3390565b6001600160a01b03811661043757604051600160e51b62461bcd0281526004018080602001828103825260268152602001806104936026913960400191505060405180910390fd5b600080546040516001600160a01b03808516939216917f8be0079c531659141344cd1fd0a4f28419497f9722a3daafe3b4186f6b6457e091a3600080546001600160a01b0319166001600160a01b039290921691909117905556fe4f776e61626c653a206e6577206f776e657220697320746865207a65726f2061646472657373a165627a7a72305820649b16cfe03e9542d85602287397879550014bd2d1a9ad1b42c0a64f448b79280029",
  "source": "pragma solidity 0.5.8;\n\nimport \"@openzeppelin/contracts/ownership/Ownable.sol\";\nimport \"../lib/external/chainlink/ChainLink.sol\";\n\n\ncontract ChainlinkHandler is Ownable {\n    mapping(address => address) public oracles;\n\n    function setOracle(address _tokenAddr, address _oracleAddr)\n        public\n        onlyOwner\n    {\n        oracles[_tokenAddr] = _oracleAddr;\n    }\n\n    function getPrice(address _tokenAddr) public view returns(uint256) {\n        return uint256(ChainLink(oracles[_tokenAddr]).latestAnswer());\n    }\n\n}",
  "sourcePath": "/Users/saitejakuruva/Documents/lucrum/contracts/handlers/ChainlinkHandler.sol",
  "compiler": {
    "name": "solc",
    "version": "0.5.8+commit.23d335f2.Emscripten.clang"
  },
  "schemaVersion": "3.1.0",
  "updatedAt": "2020-05-19T01:24:53.421Z",
  "devdoc": {
    "methods": {
      "isOwner()": {
        "details": "Returns true if the caller is the current owner."
      },
      "owner()": {
        "details": "Returns the address of the current owner."
      },
      "renounceOwnership()": {
        "details": "Leaves the contract without owner. It will not be possible to call `onlyOwner` functions anymore. Can only be called by the current owner.     * NOTE: Renouncing ownership will leave the contract without an owner, thereby removing any functionality that is only available to the owner."
      },
      "transferOwnership(address)": {
        "details": "Transfers ownership of the contract to a new account (`newOwner`). Can only be called by the current owner."
      }
    }
  },
  "userdoc": {
    "methods": {}
  }
}