{
  "contractName": "KyberHandler",
  "abi": [
    {
      "constant": true,
      "inputs": [],
      "name": "kyber",
      "outputs": [
        {
          "name": "",
          "type": "address"
        }
      ],
      "payable": false,
      "stateMutability": "view",
      "type": "function"
    },
    {
      "inputs": [
        {
          "name": "_kyber",
          "type": "address"
        }
      ],
      "payable": false,
      "stateMutability": "nonpayable",
      "type": "constructor"
    },
    {
      "anonymous": false,
      "inputs": [
        {
          "indexed": true,
          "name": "_srcToken",
          "type": "address"
        },
        {
          "indexed": true,
          "name": "_destToken",
          "type": "address"
        },
        {
          "indexed": false,
          "name": "_srcAmount",
          "type": "uint256"
        },
        {
          "indexed": false,
          "name": "_destAmount",
          "type": "uint256"
        }
      ],
      "name": "LogTrade",
      "type": "event"
    },
    {
      "constant": false,
      "inputs": [
        {
          "name": "_srcToken",
          "type": "address"
        },
        {
          "name": "_destToken",
          "type": "address"
        },
        {
          "name": "_srcAmount",
          "type": "uint256"
        }
      ],
      "name": "trade",
      "outputs": [
        {
          "name": "_destAmount",
          "type": "uint256"
        }
      ],
      "payable": false,
      "stateMutability": "nonpayable",
      "type": "function"
    }
  ],
  "bytecode": "0x608060405234801561001057600080fd5b506040516020806105238339810180604052602081101561003057600080fd5b5051600080546001600160a01b039092166001600160a01b03199092169190911790556104c1806100626000396000f3fe608060405234801561001057600080fd5b50600436106100365760003560e01c80635253baae1461003b578063a2d10ba514610083575b600080fd5b6100716004803603606081101561005157600080fd5b506001600160a01b038135811691602081013590911690604001356100a7565b60408051918252519081900360200190f35b61008b610486565b604080516001600160a01b039092168252519081900360200190f35b60408051600160e01b6323b872dd0281523360048201523060248201526044810183905290516000916001600160a01b038616916323b872dd91606480820192869290919082900301818387803b15801561010157600080fd5b505af1158015610115573d6000803e3d6000fd5b50506000805460408051600160e01b63095ea7b30281526001600160a01b039283166004820152602481018890529051918916945063095ea7b39350604480820193929182900301818387803b15801561016e57600080fd5b505af1158015610182573d6000803e3d6000fd5b50506000805460408051600160e01b63809a9e550281526001600160a01b038a811660048301528981166024830152604482018990528251949650909216935063809a9e5592606480840193829003018186803b1580156101e257600080fd5b505afa1580156101f6573d6000803e3d6000fd5b505050506040513d604081101561020c57600080fd5b50602090810151600080546040805183815294850190819052600160e01b6329589f610281526001600160a01b038a811660248701908152604487018a90528a82166064880152306084880181905269d3c21bcecceda100000060a4890181905260c4890188905260e489018790526101006101048a0190815289516101248b01819052989a5093909516976329589f61978e978d978f97949690958d959294939092610144850191808383895b838110156102d25781810151838201526020016102ba565b50505050905090810190601f1680156102ff5780820380516001836020036101000a031916815260200191505b509950505050505050505050602060405180830381600087803b15801561032557600080fd5b505af1158015610339573d6000803e3d6000fd5b505050506040513d602081101561034f57600080fd5b50516000805460408051600160e01b63095ea7b30281526001600160a01b0392831660048201526024810184905290519395509088169263095ea7b39260448084019391929182900301818387803b1580156103aa57600080fd5b505af11580156103be573d6000803e3d6000fd5b505060408051600160e01b63a9059cbb0281523360048201526024810186905290516001600160a01b038816935063a9059cbb9250604480830192600092919082900301818387803b15801561041357600080fd5b505af1158015610427573d6000803e3d6000fd5b50505050836001600160a01b0316856001600160a01b03167f8d10c7a140b316d7362354a44023c657a9c436616f21481cac1cb594aa3054588585604051808381526020018281526020019250505060405180910390a3509392505050565b6000546001600160a01b03168156fea165627a7a723058204f010c18e13a1a46607659e6c5ae792b6fc058f757eed2becbe249ea8773fdd40029",
  "source": "pragma solidity 0.5.8;\n\nimport \"../lib/external/kyber/KyberNetworkProxy.sol\";\nimport \"../lib/IERC20.sol\";\n\ncontract KyberHandler {\n\n    KyberNetworkProxy public kyber;\n\n    constructor(KyberNetworkProxy _kyber)\n        public\n    {\n        kyber = _kyber;\n    }\n\n    event LogTrade(\n        address indexed _srcToken,\n        address indexed _destToken,\n        uint256 _srcAmount,\n        uint256 _destAmount\n    );\n\n\n    function trade(\n        address _srcToken,\n        address _destToken,\n        uint256 _srcAmount\n    )\n        external\n        returns (uint256 _destAmount)\n    {\n        IERC20(_srcToken).transferFrom(msg.sender, address(this), _srcAmount);\n        IERC20(_srcToken).approve(address(kyber), _srcAmount);\n\n        uint256 slippageRate;\n        (,slippageRate) = kyber.getExpectedRate(\n            IERC20(_srcToken),\n            IERC20(_destToken),\n            _srcAmount\n        );\n\n        _destAmount = kyber.tradeWithHint(\n            IERC20(_srcToken),\n            _srcAmount,\n            IERC20(_destToken),\n            address(this),\n            10**24,\n            slippageRate,\n            address(0),\n            new bytes(0)\n        );\n\n        IERC20(_srcToken).approve(address(kyber), 0);\n        IERC20(_destToken).transfer(msg.sender, _destAmount);\n\n        emit LogTrade(_srcToken, _destToken, _srcAmount, _destAmount);\n    }\n\n}",
  "sourcePath": "/Users/saitejakuruva/Documents/lucrum/contracts/handlers/KyberHandler.sol",
  "compiler": {
    "name": "solc",
    "version": "0.5.8+commit.23d335f2.Emscripten.clang"
  },
  "schemaVersion": "3.1.0",
  "updatedAt": "2020-05-19T01:24:53.422Z",
  "devdoc": {
    "methods": {}
  },
  "userdoc": {
    "methods": {}
  }
}