{
  "contractName": "Order",
  "abi": [
    {
      "constant": true,
      "inputs": [],
      "name": "user",
      "outputs": [
        {
          "name": "",
          "type": "address"
        }
      ],
      "payable": false,
      "stateMutability": "view",
      "type": "function"
    },
    {
      "constant": true,
      "inputs": [],
      "name": "detail",
      "outputs": [
        {
          "name": "srcToken",
          "type": "address"
        },
        {
          "name": "dstToken",
          "type": "address"
        },
        {
          "name": "srcAmount",
          "type": "uint256"
        },
        {
          "name": "dstAmount",
          "type": "uint256"
        },
        {
          "name": "triggerPrice",
          "type": "uint256"
        },
        {
          "name": "startTime",
          "type": "uint256"
        },
        {
          "name": "expiryTime",
          "type": "uint256"
        },
        {
          "name": "isCancelled",
          "type": "bool"
        },
        {
          "name": "isExecuted",
          "type": "bool"
        },
        {
          "name": "isBuy",
          "type": "bool"
        }
      ],
      "payable": false,
      "stateMutability": "view",
      "type": "function"
    },
    {
      "constant": true,
      "inputs": [],
      "name": "registry",
      "outputs": [
        {
          "name": "",
          "type": "address"
        }
      ],
      "payable": false,
      "stateMutability": "view",
      "type": "function"
    },
    {
      "constant": true,
      "inputs": [],
      "name": "id",
      "outputs": [
        {
          "name": "",
          "type": "uint256"
        }
      ],
      "payable": false,
      "stateMutability": "view",
      "type": "function"
    },
    {
      "inputs": [
        {
          "name": "_orderId",
          "type": "uint256"
        },
        {
          "name": "_by",
          "type": "address"
        },
        {
          "name": "_registry",
          "type": "address"
        }
      ],
      "payable": false,
      "stateMutability": "nonpayable",
      "type": "constructor"
    },
    {
      "anonymous": false,
      "inputs": [
        {
          "indexed": true,
          "name": "returnAmount",
          "type": "uint256"
        }
      ],
      "name": "LogOrderCancel",
      "type": "event"
    },
    {
      "anonymous": false,
      "inputs": [
        {
          "indexed": true,
          "name": "returnAmount",
          "type": "uint256"
        }
      ],
      "name": "LogOrderClose",
      "type": "event"
    },
    {
      "anonymous": false,
      "inputs": [
        {
          "indexed": true,
          "name": "currPrice",
          "type": "uint256"
        },
        {
          "indexed": false,
          "name": "redeemAmount",
          "type": "uint256"
        },
        {
          "indexed": false,
          "name": "dstAmount",
          "type": "uint256"
        }
      ],
      "name": "LogOrderExecuted",
      "type": "event"
    },
    {
      "constant": false,
      "inputs": [
        {
          "name": "_srcToken",
          "type": "address"
        },
        {
          "name": "_dstToken",
          "type": "address"
        },
        {
          "name": "_srcAmount",
          "type": "uint256"
        },
        {
          "name": "_triggerPrice",
          "type": "uint256"
        },
        {
          "name": "_expiryTime",
          "type": "uint256"
        },
        {
          "name": "_isBuy",
          "type": "bool"
        }
      ],
      "name": "init",
      "outputs": [
        {
          "name": "",
          "type": "uint256"
        }
      ],
      "payable": false,
      "stateMutability": "nonpayable",
      "type": "function"
    },
    {
      "constant": false,
      "inputs": [],
      "name": "execute",
      "outputs": [],
      "payable": false,
      "stateMutability": "nonpayable",
      "type": "function"
    },
    {
      "constant": false,
      "inputs": [],
      "name": "cancel",
      "outputs": [],
      "payable": false,
      "stateMutability": "nonpayable",
      "type": "function"
    },
    {
      "constant": false,
      "inputs": [],
      "name": "close",
      "outputs": [],
      "payable": false,
      "stateMutability": "nonpayable",
      "type": "function"
    },
    {
      "constant": true,
      "inputs": [
        {
          "name": "isSrc",
          "type": "bool"
        }
      ],
      "name": "balanceOf",
      "outputs": [
        {
          "name": "_balance",
          "type": "uint256"
        }
      ],
      "payable": false,
      "stateMutability": "view",
      "type": "function"
    },
    {
      "constant": true,
      "inputs": [],
      "name": "getDetail",
      "outputs": [
        {
          "name": "",
          "type": "address"
        },
        {
          "name": "",
          "type": "address"
        },
        {
          "name": "",
          "type": "uint256"
        },
        {
          "name": "",
          "type": "uint256"
        },
        {
          "name": "",
          "type": "uint256"
        },
        {
          "name": "",
          "type": "uint256"
        },
        {
          "name": "",
          "type": "uint256"
        },
        {
          "name": "",
          "type": "bool"
        }
      ],
      "payable": false,
      "stateMutability": "view",
      "type": "function"
    }
  ],
  "bytecode": "0x6080604052600a8054600160a01b60ff021916905534801561002057600080fd5b50604051606080612c988339810180604052606081101561004057600080fd5b5080516020820151604090920151600191909155600a80546001600160a01b039384166001600160a01b03199182161790915560008054939092169216919091179055612c06806100926000396000f3fe608060405234801561001057600080fd5b506004361061009e5760003560e01c80637b103999116100665780637b1039991461019a5780638aec7445146101a2578063ae9e8328146101d3578063af640d0f1461021d578063ea8a1af0146102255761009e565b806343d726d6146100a35780634f8632ba146100ad5780635b2a4cff146100d157806361461954146101285780636b7cc44f14610130575b600080fd5b6100ab61022d565b005b6100b5610818565b604080516001600160a01b039092168252519081900360200190f35b6100d9610827565b604080516001600160a01b03998a168152979098166020880152868801959095526060860193909352608085019190915260a084015260c0830152151560e08201529051908190036101000190f35b6100ab61085d565b610138612062565b604080516001600160a01b039b8c16815299909a1660208a0152888a01979097526060880195909552608087019390935260a086019190915260c0850152151560e0840152151561010083015215156101208201529051908190036101400190f35b6100b56120a3565b6101c1600480360360208110156101b857600080fd5b503515156120b2565b60408051918252519081900360200190f35b6101c1600480360360c08110156101e957600080fd5b506001600160a01b03813581169160208101359091169060408101359060608101359060808101359060a0013515156122bf565b6101c16125e6565b6100ab6125ec565b600a54600160a01b900460ff1661028e5760408051600160e51b62461bcd02815260206004820152601860248201527f636f6e7472616374206e6f7420696e697469616c697365640000000000000000604482015290519081900360640190fd5b600a546001600160a01b031633146102e25760408051600160e51b62461bcd02815260206004820152600c6024820152600160a11b6b34b73b30b634b2103ab9b2b902604482015290519081900360640190fd5b60095460ff161561033d5760408051600160e51b62461bcd02815260206004820152601760248201527f6f7264657220616c72656164792063616e63656c6c6564000000000000000000604482015290519081900360640190fd5b600954610100900460ff1661039c5760408051600160e51b62461bcd02815260206004820152601560248201527f6f72646572206973206e6f742065786563757465640000000000000000000000604482015290519081900360640190fd5b60008060009054906101000a90046001600160a01b03166001600160a01b031663819faf7b6040518163ffffffff1660e01b815260040160206040518083038186803b1580156103eb57600080fd5b505afa1580156103ff573d6000803e3d6000fd5b505050506040513d602081101561041557600080fd5b505160035460408051600160e21b633de222bb0281523060048201526001600160a01b0392831660248201529051919092169163f7888aec916044808301926020929190829003018186803b15801561046d57600080fd5b505afa158015610481573d6000803e3d6000fd5b505050506040513d602081101561049757600080fd5b50516000805460408051600160e01b63819faf7b028152905193945091926001600160a01b039091169163819faf7b916004808301926020929190829003018186803b1580156104e657600080fd5b505afa1580156104fa573d6000803e3d6000fd5b505050506040513d602081101561051057600080fd5b505160035460408051600160e11b63399529770281526001600160a01b0392831660048201529051919092169163732a52ee916024808301926020929190829003018186803b15801561056257600080fd5b505afa158015610576573d6000803e3d6000fd5b505050506040513d602081101561058c57600080fd5b505160005460408051600160e01b63819faf7b02815290519293506001600160a01b038085169363095ea7b3939091169163819faf7b916004808301926020929190829003018186803b1580156105e257600080fd5b505afa1580156105f6573d6000803e3d6000fd5b505050506040513d602081101561060c57600080fd5b50516040805163ffffffff841660e01b81526001600160a01b0390921660048301526024820186905251604480830192600092919082900301818387803b15801561065657600080fd5b505af115801561066a573d6000803e3d6000fd5b5050505060008060009054906101000a90046001600160a01b03166001600160a01b031663819faf7b6040518163ffffffff1660e01b815260040160206040518083038186803b1580156106bd57600080fd5b505afa1580156106d1573d6000803e3d6000fd5b505050506040513d60208110156106e757600080fd5b505160035460408051600160e41b6301e9a6950281526001600160a01b0392831660048201526024810187905290519190921691631e9a69509160448083019260209291908290030181600087803b15801561074257600080fd5b505af1158015610756573d6000803e3d6000fd5b505050506040513d602081101561076c57600080fd5b50516005819055600354600a5460408051600160e01b63a9059cbb0281526001600160a01b03928316600482015260248101859052905193945091169163a9059cbb9160448082019260009290919082900301818387803b1580156107d057600080fd5b505af11580156107e4573d6000803e3d6000fd5b50506040518392507f481272fa3bf3467880fcfe081f18b1639ea04d50911eb2f5f528654e3ff4f1d49150600090a2505050565b600a546001600160a01b031681565b6002546003546004546005546006546007546008546009546001600160a01b0397881697969096169560ff169091929394959697565b600a54600160a01b900460ff166108be5760408051600160e51b62461bcd02815260206004820152601860248201527f636f6e7472616374206e6f7420696e697469616c697365640000000000000000604482015290519081900360640190fd5b60095460ff16156109195760408051600160e51b62461bcd02815260206004820152601760248201527f6f7264657220616c72656164792063616e63656c6c6564000000000000000000604482015290519081900360640190fd5b600954610100900460ff16156109795760408051600160e51b62461bcd02815260206004820152601660248201527f6f7264657220616c726561647920657865637574656400000000000000000000604482015290519081900360640190fd5b60085442106109bf5760408051600160e51b62461bcd0281526020600482015260076024820152600160ca1b66195e1c1a5c995902604482015290519081900360640190fd5b60008060009054906101000a90046001600160a01b03166001600160a01b0316639c3feeb76040518163ffffffff1660e01b815260040160206040518083038186803b158015610a0e57600080fd5b505afa158015610a22573d6000803e3d6000fd5b505050506040513d6020811015610a3857600080fd5b505160025460408051600160e01b6341976e090281526001600160a01b039283166004820152905191909216916341976e09916024808301926020929190829003018186803b158015610a8a57600080fd5b505afa158015610a9e573d6000803e3d6000fd5b505050506040513d6020811015610ab457600080fd5b505160095490915062010000900460ff16610b2857600654811015610b235760408051600160e51b62461bcd02815260206004820152601460248201527f696e76616c69642073656c6c2074726967676572000000000000000000000000604482015290519081900360640190fd5b610b82565b600654811115610b825760408051600160e51b62461bcd02815260206004820152601360248201527f696e76616c696420627579207472696767657200000000000000000000000000604482015290519081900360640190fd5b6009805461ff0019166101001790556000805460408051600160e01b63819faf7b02815290516001600160a01b039092169163819faf7b91600480820192602092909190829003018186803b158015610bda57600080fd5b505afa158015610bee573d6000803e3d6000fd5b505050506040513d6020811015610c0457600080fd5b505160025460408051600160e21b633de222bb0281523060048201526001600160a01b0392831660248201529051919092169163f7888aec916044808301926020929190829003018186803b158015610c5c57600080fd5b505afa158015610c70573d6000803e3d6000fd5b505050506040513d6020811015610c8657600080fd5b50516000805460408051600160e01b63819faf7b028152905193945091926001600160a01b039091169163819faf7b916004808301926020929190829003018186803b158015610cd557600080fd5b505afa158015610ce9573d6000803e3d6000fd5b505050506040513d6020811015610cff57600080fd5b505160025460408051600160e11b63399529770281526001600160a01b0392831660048201529051919092169163732a52ee916024808301926020929190829003018186803b158015610d5157600080fd5b505afa158015610d65573d6000803e3d6000fd5b505050506040513d6020811015610d7b57600080fd5b505160005460408051600160e01b63819faf7b02815290519293506001600160a01b038085169363095ea7b3939091169163819faf7b916004808301926020929190829003018186803b158015610dd157600080fd5b505afa158015610de5573d6000803e3d6000fd5b505050506040513d6020811015610dfb57600080fd5b50516040805163ffffffff841660e01b81526001600160a01b0390921660048301526024820186905251604480830192600092919082900301818387803b158015610e4557600080fd5b505af1158015610e59573d6000803e3d6000fd5b5050505060008060009054906101000a90046001600160a01b03166001600160a01b031663819faf7b6040518163ffffffff1660e01b815260040160206040518083038186803b158015610eac57600080fd5b505afa158015610ec0573d6000803e3d6000fd5b505050506040513d6020811015610ed657600080fd5b505160025460408051600160e41b6301e9a6950281526001600160a01b0392831660048201526024810187905290519190921691631e9a69509160448083019260209291908290030181600087803b158015610f3157600080fd5b505af1158015610f45573d6000803e3d6000fd5b505050506040513d6020811015610f5b57600080fd5b50516000805460408051600160e11b6373c67549028152905193945091926001600160a01b039091169163e78cea92916004808301926020929190829003018186803b158015610faa57600080fd5b505afa158015610fbe573d6000803e3d6000fd5b505050506040513d6020811015610fd457600080fd5b505160408051600160e01b635725d1e702815290516001600160a01b0390921691635725d1e791600480820192602092909190829003018186803b15801561101b57600080fd5b505afa15801561102f573d6000803e3d6000fd5b505050506040513d602081101561104557600080fd5b50516002546001600160a01b03908116911614156115db5760025460005460408051600160e11b6373c6754902815290516001600160a01b039384169363095ea7b393169163e78cea92916004808301926020929190829003018186803b1580156110af57600080fd5b505afa1580156110c3573d6000803e3d6000fd5b505050506040513d60208110156110d957600080fd5b50516040805163ffffffff841660e01b81526001600160a01b0390921660048301526024820186905251604480830192600092919082900301818387803b15801561112357600080fd5b505af1158015611137573d6000803e3d6000fd5b505050506000809054906101000a90046001600160a01b03166001600160a01b031663e78cea926040518163ffffffff1660e01b815260040160206040518083038186803b15801561118857600080fd5b505afa15801561119c573d6000803e3d6000fd5b505050506040513d60208110156111b257600080fd5b505160408051600160e51b630521942f0281526004810185905290516001600160a01b039092169163a43285e0916024808201926020929091908290030181600087803b15801561120257600080fd5b505af1158015611216573d6000803e3d6000fd5b505050506040513d602081101561122c57600080fd5b505060005460408051600160e11b6373c6754902815290516001600160a01b039092169163e78cea9291600480820192602092909190829003018186803b15801561127657600080fd5b505afa15801561128a573d6000803e3d6000fd5b505050506040513d60208110156112a057600080fd5b505160408051600160e11b6363bf5b4d02815290516001600160a01b039092169163c77eb69a91600480820192602092909190829003018186803b1580156112e757600080fd5b505afa1580156112fb573d6000803e3d6000fd5b505050506040513d602081101561131157600080fd5b505160005460408051600160e01b63a2d10ba502815290516001600160a01b039384169363095ea7b393169163a2d10ba5916004808301926020929190829003018186803b15801561136257600080fd5b505afa158015611376573d6000803e3d6000fd5b505050506040513d602081101561138c57600080fd5b50516040805163ffffffff841660e01b81526001600160a01b0390921660048301526024820186905251604480830192600092919082900301818387803b1580156113d657600080fd5b505af11580156113ea573d6000803e3d6000fd5b505050506000809054906101000a90046001600160a01b03166001600160a01b031663a2d10ba56040518163ffffffff1660e01b815260040160206040518083038186803b15801561143b57600080fd5b505afa15801561144f573d6000803e3d6000fd5b505050506040513d602081101561146557600080fd5b505160005460408051600160e11b6373c6754902815290516001600160a01b0393841693635253baae93169163e78cea92916004808301926020929190829003018186803b1580156114b657600080fd5b505afa1580156114ca573d6000803e3d6000fd5b505050506040513d60208110156114e057600080fd5b505160408051600160e11b6363bf5b4d02815290516001600160a01b039092169163c77eb69a91600480820192602092909190829003018186803b15801561152757600080fd5b505afa15801561153b573d6000803e3d6000fd5b505050506040513d602081101561155157600080fd5b50516003546040805163ffffffff851660e01b81526001600160a01b039384166004820152929091166024830152604482018690525160648083019260209291908290030181600087803b1580156115a857600080fd5b505af11580156115bc573d6000803e3d6000fd5b505050506040513d60208110156115d257600080fd5b50519050611e45565b6000809054906101000a90046001600160a01b03166001600160a01b031663e78cea926040518163ffffffff1660e01b815260040160206040518083038186803b15801561162857600080fd5b505afa15801561163c573d6000803e3d6000fd5b505050506040513d602081101561165257600080fd5b505160408051600160e01b635725d1e702815290516001600160a01b0390921691635725d1e791600480820192602092909190829003018186803b15801561169957600080fd5b505afa1580156116ad573d6000803e3d6000fd5b505050506040513d60208110156116c357600080fd5b50516003546001600160a01b0390811691161415611c5c5760025460005460408051600160e01b63a2d10ba502815290516001600160a01b039384169363095ea7b393169163a2d10ba5916004808301926020929190829003018186803b15801561172d57600080fd5b505afa158015611741573d6000803e3d6000fd5b505050506040513d602081101561175757600080fd5b50516040805163ffffffff841660e01b81526001600160a01b0390921660048301526024820186905251604480830192600092919082900301818387803b1580156117a157600080fd5b505af11580156117b5573d6000803e3d6000fd5b505050506000809054906101000a90046001600160a01b03166001600160a01b031663a2d10ba56040518163ffffffff1660e01b815260040160206040518083038186803b15801561180657600080fd5b505afa15801561181a573d6000803e3d6000fd5b505050506040513d602081101561183057600080fd5b505160025460005460408051600160e11b6373c6754902815290516001600160a01b0394851694635253baae94811693169163e78cea92916004808301926020929190829003018186803b15801561188757600080fd5b505afa15801561189b573d6000803e3d6000fd5b505050506040513d60208110156118b157600080fd5b505160408051600160e11b6363bf5b4d02815290516001600160a01b039092169163c77eb69a91600480820192602092909190829003018186803b1580156118f857600080fd5b505afa15801561190c573d6000803e3d6000fd5b505050506040513d602081101561192257600080fd5b50516040805163ffffffff851660e01b81526001600160a01b039384166004820152929091166024830152604482018690525160648083019260209291908290030181600087803b15801561197657600080fd5b505af115801561198a573d6000803e3d6000fd5b505050506040513d60208110156119a057600080fd5b505160005460408051600160e11b6373c6754902815290519293506001600160a01b039091169163e78cea9291600480820192602092909190829003018186803b1580156119ed57600080fd5b505afa158015611a01573d6000803e3d6000fd5b505050506040513d6020811015611a1757600080fd5b505160408051600160e11b6363bf5b4d02815290516001600160a01b039092169163c77eb69a91600480820192602092909190829003018186803b158015611a5e57600080fd5b505afa158015611a72573d6000803e3d6000fd5b505050506040513d6020811015611a8857600080fd5b505160005460408051600160e11b6373c6754902815290516001600160a01b039384169363095ea7b393169163e78cea92916004808301926020929190829003018186803b158015611ad957600080fd5b505afa158015611aed573d6000803e3d6000fd5b505050506040513d6020811015611b0357600080fd5b50516040805163ffffffff841660e01b81526001600160a01b0390921660048301526024820185905251604480830192600092919082900301818387803b158015611b4d57600080fd5b505af1158015611b61573d6000803e3d6000fd5b505050506000809054906101000a90046001600160a01b03166001600160a01b031663e78cea926040518163ffffffff1660e01b815260040160206040518083038186803b158015611bb257600080fd5b505afa158015611bc6573d6000803e3d6000fd5b505050506040513d6020811015611bdc57600080fd5b505160408051600160e21b62235e150281526004810184905290516001600160a01b0390921691628d7854916024808201926020929091908290030181600087803b158015611c2a57600080fd5b505af1158015611c3e573d6000803e3d6000fd5b505050506040513d6020811015611c5457600080fd5b50611e459050565b60025460005460408051600160e01b63a2d10ba502815290516001600160a01b039384169363095ea7b393169163a2d10ba5916004808301926020929190829003018186803b158015611cae57600080fd5b505afa158015611cc2573d6000803e3d6000fd5b505050506040513d6020811015611cd857600080fd5b50516040805163ffffffff841660e01b81526001600160a01b0390921660048301526024820186905251604480830192600092919082900301818387803b158015611d2257600080fd5b505af1158015611d36573d6000803e3d6000fd5b505050506000809054906101000a90046001600160a01b03166001600160a01b031663a2d10ba56040518163ffffffff1660e01b815260040160206040518083038186803b158015611d8757600080fd5b505afa158015611d9b573d6000803e3d6000fd5b505050506040513d6020811015611db157600080fd5b505160025460035460408051600160e11b632929dd570281526001600160a01b039384166004820152918316602483015260448201869052519190921691635253baae9160648083019260209291908290030181600087803b158015611e1657600080fd5b505af1158015611e2a573d6000803e3d6000fd5b505050506040513d6020811015611e4057600080fd5b505190505b60035460005460408051600160e01b63819faf7b02815290516001600160a01b039384169363095ea7b393169163819faf7b916004808301926020929190829003018186803b158015611e9757600080fd5b505afa158015611eab573d6000803e3d6000fd5b505050506040513d6020811015611ec157600080fd5b50516040805163ffffffff841660e01b81526001600160a01b0390921660048301526024820185905251604480830192600092919082900301818387803b158015611f0b57600080fd5b505af1158015611f1f573d6000803e3d6000fd5b505050506000809054906101000a90046001600160a01b03166001600160a01b031663819faf7b6040518163ffffffff1660e01b815260040160206040518083038186803b158015611f7057600080fd5b505afa158015611f84573d6000803e3d6000fd5b505050506040513d6020811015611f9a57600080fd5b505160035460408051600160e01b63a2fb342d0281526001600160a01b039283166004820152602481018590529051919092169163a2fb342d9160448083019260209291908290030181600087803b158015611ff557600080fd5b505af1158015612009573d6000803e3d6000fd5b505050506040513d602081101561201f57600080fd5b50506040805183815260208101839052815187927f967fab2d40c1ed8fd056269d450f4160178d410a53dc3d6e90b7ad681ac2e02f928290030190a25050505050565b6002546003546004546005546006546007546008546009546001600160a01b03978816979096169560ff80821691610100810482169162010000909104168a565b6000546001600160a01b031681565b600081156121bc576000809054906101000a90046001600160a01b03166001600160a01b031663819faf7b6040518163ffffffff1660e01b815260040160206040518083038186803b15801561210757600080fd5b505afa15801561211b573d6000803e3d6000fd5b505050506040513d602081101561213157600080fd5b505160025460408051600160e21b633de222bb0281523060048201526001600160a01b0392831660248201529051919092169163f7888aec916044808301926020929190829003018186803b15801561218957600080fd5b505afa15801561219d573d6000803e3d6000fd5b505050506040513d60208110156121b357600080fd5b505190506122ba565b6000809054906101000a90046001600160a01b03166001600160a01b031663819faf7b6040518163ffffffff1660e01b815260040160206040518083038186803b15801561220957600080fd5b505afa15801561221d573d6000803e3d6000fd5b505050506040513d602081101561223357600080fd5b505160035460408051600160e21b633de222bb0281523060048201526001600160a01b0392831660248201529051919092169163f7888aec916044808301926020929190829003018186803b15801561228b57600080fd5b505afa15801561229f573d6000803e3d6000fd5b505050506040513d60208110156122b557600080fd5b505190505b919050565b600a54600090600160a01b900460ff16156123245760408051600160e51b62461bcd02815260206004820152601c60248201527f636f6e747261637420696e697469616c6973656420616c726561647900000000604482015290519081900360640190fd5b60408051610140810182526001600160a01b0389811680835289821660208085018290528486018b9052600060608601819052608086018b90524260a0870181905260c087018b905260e087018290526101008701829052891515610120909701879052600280546001600160a01b0319908116909617908190556003805490961690941790945560048c8155600582905560068c905560079490945560088a90556009805462ffffff1916620100009097029690961790955593548551600160e01b63819faf7b02815295519184169563095ea7b395919094169363819faf7b938181019391829003018186803b15801561241f57600080fd5b505afa158015612433573d6000803e3d6000fd5b505050506040513d602081101561244957600080fd5b5051600480546040805163ffffffff861660e01b81526001600160a01b0390941692840192909252602483015251604480830192600092919082900301818387803b15801561249757600080fd5b505af11580156124ab573d6000803e3d6000fd5b5050505060008060009054906101000a90046001600160a01b03166001600160a01b031663819faf7b6040518163ffffffff1660e01b815260040160206040518083038186803b1580156124fe57600080fd5b505afa158015612512573d6000803e3d6000fd5b505050506040513d602081101561252857600080fd5b50516002546004805460408051600160e01b63a2fb342d0281526001600160a01b0394851693810193909352602483019190915251919092169163a2fb342d9160448083019260209291908290030181600087803b15801561258957600080fd5b505af115801561259d573d6000803e3d6000fd5b505050506040513d60208110156125b357600080fd5b5051600a805474ff00000000000000000000000000000000000000001916600160a01b1790559150509695505050505050565b60015481565b600a54600160a01b900460ff1661264d5760408051600160e51b62461bcd02815260206004820152601860248201527f636f6e7472616374206e6f7420696e697469616c697365640000000000000000604482015290519081900360640190fd5b600a546001600160a01b031633146126a15760408051600160e51b62461bcd02815260206004820152600c6024820152600160a11b6b34b73b30b634b2103ab9b2b902604482015290519081900360640190fd5b60095460ff16156126fc5760408051600160e51b62461bcd02815260206004820152601760248201527f6f7264657220616c72656164792063616e63656c6c6564000000000000000000604482015290519081900360640190fd5b600954610100900460ff161561275c5760408051600160e51b62461bcd02815260206004820152601660248201527f6f7264657220616c726561647920657865637574656400000000000000000000604482015290519081900360640190fd5b6009805460ff191660011790556000805460408051600160e01b63819faf7b02815290516001600160a01b039092169163819faf7b91600480820192602092909190829003018186803b1580156127b257600080fd5b505afa1580156127c6573d6000803e3d6000fd5b505050506040513d60208110156127dc57600080fd5b505160025460408051600160e21b633de222bb0281523060048201526001600160a01b0392831660248201529051919092169163f7888aec916044808301926020929190829003018186803b15801561283457600080fd5b505afa158015612848573d6000803e3d6000fd5b505050506040513d602081101561285e57600080fd5b50516000805460408051600160e01b63819faf7b028152905193945091926001600160a01b039091169163819faf7b916004808301926020929190829003018186803b1580156128ad57600080fd5b505afa1580156128c1573d6000803e3d6000fd5b505050506040513d60208110156128d757600080fd5b505160025460408051600160e11b63399529770281526001600160a01b0392831660048201529051919092169163732a52ee916024808301926020929190829003018186803b15801561292957600080fd5b505afa15801561293d573d6000803e3d6000fd5b505050506040513d602081101561295357600080fd5b505160005460408051600160e01b63819faf7b02815290519293506001600160a01b038085169363095ea7b3939091169163819faf7b916004808301926020929190829003018186803b1580156129a957600080fd5b505afa1580156129bd573d6000803e3d6000fd5b505050506040513d60208110156129d357600080fd5b50516040805163ffffffff841660e01b81526001600160a01b0390921660048301526024820186905251604480830192600092919082900301818387803b158015612a1d57600080fd5b505af1158015612a31573d6000803e3d6000fd5b5050505060008060009054906101000a90046001600160a01b03166001600160a01b031663819faf7b6040518163ffffffff1660e01b815260040160206040518083038186803b158015612a8457600080fd5b505afa158015612a98573d6000803e3d6000fd5b505050506040513d6020811015612aae57600080fd5b505160025460408051600160e41b6301e9a6950281526001600160a01b0392831660048201526024810187905290519190921691631e9a69509160448083019260209291908290030181600087803b158015612b0957600080fd5b505af1158015612b1d573d6000803e3d6000fd5b505050506040513d6020811015612b3357600080fd5b5051600254600a5460408051600160e01b63a9059cbb0281526001600160a01b03928316600482015260248101859052905193945091169163a9059cbb9160448082019260009290919082900301818387803b158015612b9257600080fd5b505af1158015612ba6573d6000803e3d6000fd5b50506040518392507f416b2ee445ce13f819424c61ae61b8a3168292dfd2a1e9e47d8abedf98577c739150600090a250505056fea165627a7a723058204b236601a122a19bb5dc413bd2c28ecce013452ad4134bce5b90c1c318f21e680029",
  "source": "pragma solidity 0.5.8;\n\nimport \"./Registry.sol\";\n\ncontract Order {\n\n    Registry public registry;\n\n    struct OrderDetail {\n        address srcToken;\n        address dstToken;\n        uint256 srcAmount;\n        uint256 dstAmount;\n        uint256 triggerPrice;\n        uint256 startTime;\n        uint256 expiryTime;\n        bool isCancelled;\n        bool isExecuted;\n        bool isBuy;\n    }\n\n    uint256 public id;\n    OrderDetail public detail;\n    address public user;\n\n    bool internal isInitC = false;\n\n\n    event LogOrderCancel(\n        uint256 indexed returnAmount\n    );\n\n    event LogOrderClose(\n        uint256 indexed returnAmount\n    );\n\n    event LogOrderExecuted(\n        uint256 indexed currPrice,\n        uint256 redeemAmount,\n        uint256 dstAmount\n    );\n\n    modifier initC() {\n        require(isInitC, 'contract not initialised');\n        _;\n    }\n\n    modifier notInitC() {\n        require(!isInitC, 'contract initialised already');\n        _;\n    }\n\n    modifier onlyUser() {\n        require(user == msg.sender, 'invalid user');\n        _;\n    }\n\n    modifier notCancelled() {\n        require(!detail.isCancelled, 'order already cancelled');\n        _;\n    }\n\n    modifier isCancelled() {\n        require(detail.isCancelled, 'order is not cancelled');\n        _;\n    }\n\n    modifier notExecuted() {\n        require(!detail.isExecuted, 'order already executed');\n        _;\n    }\n\n    modifier isExecuted() {\n        require(detail.isExecuted, 'order is not executed');\n        _;\n    }\n\n    constructor(\n        uint256 _orderId,\n        address _by,\n        Registry _registry\n    )\n        public\n    {\n        id = _orderId;\n        user = _by;\n        registry = _registry;\n    }\n\n    function init(\n        address _srcToken,\n        address _dstToken,\n        uint256 _srcAmount,\n        uint256 _triggerPrice,\n        uint256 _expiryTime,\n        bool _isBuy\n    )\n        public\n        notInitC\n        returns (uint256)\n    {\n        detail = OrderDetail({\n            srcToken : _srcToken,\n            dstToken : _dstToken,\n            srcAmount : _srcAmount,\n            dstAmount : 0,\n            triggerPrice : _triggerPrice,\n            startTime : now,\n            expiryTime : _expiryTime,\n            isCancelled : false,\n            isExecuted : false,\n            isBuy : _isBuy\n        });\n\n        IERC20(detail.srcToken).approve(address(registry.aave()), detail.srcAmount);\n        uint returnAmount = registry.aave().lend(detail.srcToken, detail.srcAmount);\n\n        isInitC = true;\n\n        return returnAmount;\n    }\n\n    function execute()\n        public\n        initC\n        notCancelled\n        notExecuted\n    {\n        require(detail.expiryTime > now, 'expired');\n\n        uint256 currPrice = registry.chainlink().getPrice(detail.srcToken);\n\n        if(!detail.isBuy) {\n            require(detail.triggerPrice <= currPrice, 'invalid sell trigger');\n        } else {\n            require(detail.triggerPrice >= currPrice, 'invalid buy trigger');\n        }\n            \n        detail.isExecuted = true;\n        \n        uint256 balance = registry.aave().balanceOf(address(this), detail.srcToken);\n\n        address aToken = registry.aave().getAToken(detail.srcToken);\n\n        IERC20(aToken).approve(address(registry.aave()), balance);\n        uint256 redeemAmount = registry.aave().redeem(detail.srcToken, balance);\n\n        uint256 dstAmount;\n        //only for kovan network\n        if(detail.srcToken == registry.bridge().AAVE_DAI()){\n            IERC20(detail.srcToken).approve(address(registry.bridge()), redeemAmount);\n            registry.bridge().up(redeemAmount);\n\n            IERC20(registry.bridge().KYBER_DAI()).approve(address(registry.kyber()), redeemAmount);\n            dstAmount = registry.kyber().trade(registry.bridge().KYBER_DAI(), detail.dstToken, redeemAmount);\n        } else if(detail.dstToken == registry.bridge().AAVE_DAI()){\n            IERC20(detail.srcToken).approve(address(registry.kyber()), redeemAmount);\n            dstAmount = registry.kyber().trade(detail.srcToken, registry.bridge().KYBER_DAI(), redeemAmount);\n\n            IERC20(registry.bridge().KYBER_DAI()).approve(address(registry.bridge()), dstAmount);\n            registry.bridge().down(dstAmount);\n        } else {\n            IERC20(detail.srcToken).approve(address(registry.kyber()), redeemAmount);\n            dstAmount = registry.kyber().trade(detail.srcToken, detail.dstToken, redeemAmount);\n        }\n\n        IERC20(detail.dstToken).approve(address(registry.aave()), dstAmount);\n        registry.aave().lend(detail.dstToken, dstAmount);\n\n        emit LogOrderExecuted(currPrice, redeemAmount, dstAmount);\n    }\n\n    function cancel()\n        public\n        initC\n        onlyUser\n        notCancelled\n        notExecuted\n    {\n        detail.isCancelled = true;\n        uint256 balance = registry.aave().balanceOf(address(this), detail.srcToken);\n\n        address aToken = registry.aave().getAToken(detail.srcToken);\n        IERC20(aToken).approve(address(registry.aave()), balance);\n        uint256 returnAmount = registry.aave().redeem(detail.srcToken, balance);\n\n        IERC20(detail.srcToken).transfer(user, returnAmount);\n\n        emit LogOrderCancel(returnAmount);\n    }\n\n    function close()\n        public\n        initC\n        onlyUser\n        notCancelled\n        isExecuted\n    {\n        uint256 balance = registry.aave().balanceOf(address(this), detail.dstToken);\n\n        address aToken = registry.aave().getAToken(detail.dstToken);\n        IERC20(aToken).approve(address(registry.aave()), balance);\n        uint256 returnAmount = registry.aave().redeem(detail.dstToken, balance);\n\n        detail.dstAmount = returnAmount;\n\n        IERC20(detail.dstToken).transfer(user, returnAmount);\n        emit LogOrderClose(returnAmount);\n    }\n    \n    function balanceOf(bool isSrc)\n        public\n        view\n        returns (uint256 _balance)\n    {\n        if(isSrc) {\n            _balance = registry.aave().balanceOf(address(this), detail.srcToken);\n        } else {\n            _balance = registry.aave().balanceOf(address(this), detail.dstToken);\n        }\n    }\n\n\n    function getDetail()\n        public\n        view\n        returns (\n            address,\n            address,\n            uint256,\n            uint256,\n            uint256,\n            uint256,\n            uint256,\n            bool\n        )\n    {\n        return (\n            detail.srcToken,\n            detail.dstToken,\n            detail.srcAmount,\n            detail.dstAmount,\n            detail.triggerPrice,\n            detail.startTime,\n            detail.expiryTime,\n            detail.isCancelled\n        );\n    }\n\n\n}",
  "sourcePath": "/Users/saitejakuruva/Documents/lucrum/contracts/Order.sol",
  "compiler": {
    "name": "solc",
    "version": "0.5.8+commit.23d335f2.Emscripten.clang"
  },
  "schemaVersion": "3.1.0",
  "updatedAt": "2020-05-19T01:24:53.399Z",
  "devdoc": {
    "methods": {}
  },
  "userdoc": {
    "methods": {}
  }
}