{
  "contractName": "Registry",
  "abi": [
    {
      "constant": false,
      "inputs": [],
      "name": "renounceOwnership",
      "outputs": [],
      "payable": false,
      "stateMutability": "nonpayable",
      "type": "function"
    },
    {
      "constant": true,
      "inputs": [],
      "name": "aave",
      "outputs": [
        {
          "name": "",
          "type": "address"
        }
      ],
      "payable": false,
      "stateMutability": "view",
      "type": "function"
    },
    {
      "constant": true,
      "inputs": [],
      "name": "owner",
      "outputs": [
        {
          "name": "",
          "type": "address"
        }
      ],
      "payable": false,
      "stateMutability": "view",
      "type": "function"
    },
    {
      "constant": true,
      "inputs": [],
      "name": "isOwner",
      "outputs": [
        {
          "name": "",
          "type": "bool"
        }
      ],
      "payable": false,
      "stateMutability": "view",
      "type": "function"
    },
    {
      "constant": true,
      "inputs": [],
      "name": "chainlink",
      "outputs": [
        {
          "name": "",
          "type": "address"
        }
      ],
      "payable": false,
      "stateMutability": "view",
      "type": "function"
    },
    {
      "constant": true,
      "inputs": [],
      "name": "kyber",
      "outputs": [
        {
          "name": "",
          "type": "address"
        }
      ],
      "payable": false,
      "stateMutability": "view",
      "type": "function"
    },
    {
      "constant": true,
      "inputs": [],
      "name": "bridge",
      "outputs": [
        {
          "name": "",
          "type": "address"
        }
      ],
      "payable": false,
      "stateMutability": "view",
      "type": "function"
    },
    {
      "constant": false,
      "inputs": [
        {
          "name": "newOwner",
          "type": "address"
        }
      ],
      "name": "transferOwnership",
      "outputs": [],
      "payable": false,
      "stateMutability": "nonpayable",
      "type": "function"
    },
    {
      "inputs": [
        {
          "name": "_aave",
          "type": "address"
        },
        {
          "name": "_kyber",
          "type": "address"
        },
        {
          "name": "_chainlink",
          "type": "address"
        },
        {
          "name": "_bridge",
          "type": "address"
        }
      ],
      "payable": false,
      "stateMutability": "nonpayable",
      "type": "constructor"
    },
    {
      "anonymous": false,
      "inputs": [
        {
          "indexed": true,
          "name": "previousOwner",
          "type": "address"
        },
        {
          "indexed": true,
          "name": "newOwner",
          "type": "address"
        }
      ],
      "name": "OwnershipTransferred",
      "type": "event"
    }
  ],
  "bytecode": "0x608060405234801561001057600080fd5b5060405160808061049d8339810180604052608081101561003057600080fd5b508051602080830151604084015160609094015192939092909160009061005a906100f7811b901c565b600080546001600160a01b0319166001600160a01b0383169081178255604051929350917f8be0079c531659141344cd1fd0a4f28419497f9722a3daafe3b4186f6b6457e0908290a350600180546001600160a01b039586166001600160a01b03199182161790915560028054948616948216949094179093556003805492851692841692909217909155600480549190931691161790556100fb565b3390565b6103938061010a6000396000f3fe608060405234801561001057600080fd5b50600436106100885760003560e01c80639c3feeb71161005b5780639c3feeb7146100df578063a2d10ba5146100e7578063e78cea92146100ef578063f2fde38b146100f757610088565b8063715018a61461008d578063819faf7b146100975780638da5cb5b146100bb5780638f32d59b146100c3575b600080fd5b61009561011d565b005b61009f6101c3565b604080516001600160a01b039092168252519081900360200190f35b61009f6101d2565b6100cb6101e1565b604080519115158252519081900360200190f35b61009f610205565b61009f610214565b61009f610223565b6100956004803603602081101561010d57600080fd5b50356001600160a01b0316610232565b6101256101e1565b6101795760408051600160e51b62461bcd02815260206004820181905260248201527f4f776e61626c653a2063616c6c6572206973206e6f7420746865206f776e6572604482015290519081900360640190fd5b600080546040516001600160a01b03909116907f8be0079c531659141344cd1fd0a4f28419497f9722a3daafe3b4186f6b6457e0908390a3600080546001600160a01b0319169055565b6001546001600160a01b031681565b6000546001600160a01b031690565b600080546001600160a01b03166101f661029a565b6001600160a01b031614905090565b6003546001600160a01b031681565b6002546001600160a01b031681565b6004546001600160a01b031681565b61023a6101e1565b61028e5760408051600160e51b62461bcd02815260206004820181905260248201527f4f776e61626c653a2063616c6c6572206973206e6f7420746865206f776e6572604482015290519081900360640190fd5b6102978161029e565b50565b3390565b6001600160a01b0381166102e657604051600160e51b62461bcd0281526004018080602001828103825260268152602001806103426026913960400191505060405180910390fd5b600080546040516001600160a01b03808516939216917f8be0079c531659141344cd1fd0a4f28419497f9722a3daafe3b4186f6b6457e091a3600080546001600160a01b0319166001600160a01b039290921691909117905556fe4f776e61626c653a206e6577206f776e657220697320746865207a65726f2061646472657373a165627a7a72305820d34f250b7eec126f5e0dbc148f0dcbe75009eae96cd45ab2a279430db057421f0029",
  "source": "pragma solidity 0.5.8;\n\nimport \"@openzeppelin/contracts/ownership/Ownable.sol\";\nimport \"./handlers/KyberHandler.sol\";\nimport \"./handlers/ChainlinkHandler.sol\";\nimport \"./handlers/AaveHandler.sol\";\nimport \"./handlers/AaveToKyberBridge.sol\";\n\n\ncontract Registry is Ownable {\n\n    AaveHandler public aave;\n    KyberHandler public kyber;\n    ChainlinkHandler public chainlink;\n    AaveToKyberBridge public bridge;\n\n    constructor\n    (\n        AaveHandler _aave,\n        KyberHandler _kyber,\n        ChainlinkHandler _chainlink,\n        AaveToKyberBridge _bridge\n    )\n        public\n    {\n        aave = _aave;\n        kyber = _kyber;\n        chainlink = _chainlink;\n        bridge = _bridge;\n    }\n\n}",
  "sourcePath": "/Users/saitejakuruva/Documents/lucrum/contracts/Registry.sol",
  "compiler": {
    "name": "solc",
    "version": "0.5.8+commit.23d335f2.Emscripten.clang"
  },
  "schemaVersion": "3.1.0",
  "updatedAt": "2020-05-19T01:24:53.411Z",
  "devdoc": {
    "methods": {
      "isOwner()": {
        "details": "Returns true if the caller is the current owner."
      },
      "owner()": {
        "details": "Returns the address of the current owner."
      },
      "renounceOwnership()": {
        "details": "Leaves the contract without owner. It will not be possible to call `onlyOwner` functions anymore. Can only be called by the current owner.     * NOTE: Renouncing ownership will leave the contract without an owner, thereby removing any functionality that is only available to the owner."
      },
      "transferOwnership(address)": {
        "details": "Transfers ownership of the contract to a new account (`newOwner`). Can only be called by the current owner."
      }
    }
  },
  "userdoc": {
    "methods": {}
  }
}